:100000000C94AB040C94F2040C94F2040C94372E70
:100010000C94F2040C94F2040C94F2040C94F20488
:100020000C94F2040C94F2040C9431260C946D257B
:100030000C945D2A0C94F2040C94F2040C94F204D7
:100040000C94F2040C94F2040C94F2040C94F20458
:100050000C94F2040C94F3290C94F2040C94F20422
:100060000C94F2040C94F2040C94F2040C94F20438
:100070000C94F2040C94F2040C94F2040C94F20428
:100080000C94F2040C94F2040C94F2040C94F20418
:100090000C94F2040C94F2040C94F2040C94F20408
:1000A0000C94F2040C94F2040C94F2041D0920093F
:1000B000230926093A093D0940093B0C3B0C750C04
:1000C000750CB50CD10C6F0E6F0EDC0CBA0DCB0D90
:1000D000CB0D48177F17611766176B1770177A17C4
:1000E00075177F178823AF234525AF234525F723B1
:1000F0001A24452509251C25182718272B272B27C7
:1001000021272B272B272B271827182726272B2794
:100110002B27262736003800000036003700000065
:100120001B00060000001D00380000000E000B0040
:1001300000000700190000003700380000001D0013
:100140001B00000001012850757368207468652049
:100150006C616E65206F75740101280001012849EA
:1001600020616D2070756C6C696E672C20706C61FD
:1001700079207361666501012800474F44204D4F87
:10018000444520444953454E4741474544010128D1
:100190000001012800474F44204D4F444520454E63
:1001A000474147454401012800010128003D5E2EDA
:1001B0002E5E3D00645B6F5F305D62002D3E005B34
:1001C0005D010150007B7D01015000282901015093
:1001D000003C3E0101500067697420636F6D6D69DA
:1001E00074202D61202D6D202222010150006669AE
:1001F0006E64202E202D6E616D6520220067726571
:1002000070202D726E20220064726163756C6164CF
:100210002F736164656B6261726F75646920402041
:10022000302E31332E33382D3134392D6764373841
:100230003534622D64697274792C204275696C744E
:10024000206F6E3A20323032312D30392D31362D3B
:1002500030313A32353A353300010128002D6B62D6
:100260002064726163756C6164202D6B6D20736115
:1002700064656B6261726F7564690020636F6D7095
:10028000696C65200020666C6173682000716D6B7D
:100290000014001A000900134505000461156816D2
:1002A0006417620A001D001B000600070019000009
:1002B00000A80028432B452A4533001C0018480F8E
:1002C000450D0012710C7808741172104738003710
:1002D0000036000B000E0000004C002A0134002CF8
:1002E0004414001A00080015451700046116680739
:1002F0006409620A001D001B0006001900050000C9
:1003000000A80028432B452A45130012000C48186A
:10031000451C0033710F780E740D720B473800378F
:100320000036001000110000004C002A0134002C9F
:10033000441400070015001A450500046116680BF7
:100340006417620A001D001B00100006001900005F
:1003500000A80028432B452A4533001300184809FC
:10036000450D000C711278087411721C4738003763
:100370000036000F000E0000004C002A0134002C53
:100380004429004B0052004E0001004A0050005129
:10039000004F004D001D011B010601010019010065
:1003A00000010001002B002A002E02260025002457
:1003B0000025022D00230022002100380027002004
:1003C000001F001E002E0000000100010037000683
:1003D000511E021F022002210222022D002F002F97
:1003E0000226023602390035002B0350096E5D00EB
:1003F00000010006512B002A002E002D02250224A8
:100400000223022E0230003002270237023100712F
:100410005D2B014F09705D0000010001000100012A
:100420000001004E0252024B0201004A02500251EA
:10043000024F024D021D011B0106011901A8000017
:1004400000010001000100010043004200410040A2
:1004500000AE0044003F003E003D00A90045003CC6
:10046000003B003A00AA0000000100010001000169
:1004700000C35CC55CC45C01000153615DC65CC81F
:100480005CCA5C0053605DC75CC95CCB5C02530016
:100490000001000100010001006C5D0100665D6566
:1004A0005DCC5C6B5D6A5D695D685D675D6D5D011E
:1004B000000100645DCD5C0000010001000100014D
:1004C00000005CF900ED00FA000100FB00EF00EE17
:1004D00000F000FC00FD00FE00FF00010001000034
:1004E000000100F100F300F3000100010001000130
:1004F00000010001000100010001000100010001F4
:10050000000100010001000000010001000100F2F3
:1005100000010001005208010001000100500851D3
:10052000084F080100010001000100010001000066
:1005300000010001000100010001000100010001B3
:1005400000010001000100010001000100010001A3
:100550000001000100010000000100010001000194
:10056000000000000000000000000000000000008B
:10057000000000000000000000000000000000007B
:1005800000000000007E0F00D4FFFFFFC700000046
:100590007800000000000000002A2B280000000066
:1005A0000000000000000000000000002900000022
:1005B000002C1E3420212224342627252E362D37C8
:1005C00038271E1F202122232425263333362E3799
:1005D000381F0405060708090A0B0C0D0E0F101131
:1005E00012131415161718191A1B1C1D2F3130233E
:1005F0002D350405060708090A0B0C0D0E0F101106
:1006000012131415161718191A1B1C1D2F3130350B
:100610004C0001010101010101010102020202027B
:10062000020202020303030303030303040404049A
:100630000404040505050505060606060607070762
:10064000070708080808090909090A0A0A0B0B0B19
:100650000C0C0C0D0D0D0E0E0E0F0F0F10101111B6
:10066000111212131314141515161617171818193A
:10067000191A1A1B1B1C1D1D1E1E1F2020212222A1
:10068000232424252626272829292A2B2C2D2D2EE4
:100690002F30313232333435363738393A3B3C3DFE
:1006A0003E3F404142434445464748494A4C4D4EEF
:1006B0004F50515354555658595A5B5D5E5F6162B5
:1006C00064656668696B6C6D6F7072737577787A44
:1006D0007B7D7E8082838587888A8C8E8F9193959F
:1006E00096989A9C9EA0A2A3A5A7A9ABADAFB1B3C3
:1006F000B5B7BABCBEC0C2C4C6C9CBCDCFD1D4D6A3
:10070000D8DBDDDFE2E4E7E9EBEEF0F3F5F8FAFD44
:10071000FFFFAA7F55402223252628292A2C2D2F8A
:100720003032333536383A3B3D3E40424345474907
:100730004A4C4E5051535557595A5C5E606264663C
:1007400068696B6D6F71737577797B7D7F81838548
:1007500087898A8C8E90929496989A9C9E9FA1A34A
:10076000A5A7A8AAACAEAFB1B3B4B6B8B9BBBCBE6E
:10077000BFC1C2C3C5C6C7C9CACBCCCDCED0D1D2EA
:10078000D2D3D4D5D6D7D7D8D9D9DADADBDBDBDCEC
:10079000DCDCDCDCDDDDDDDDDCDCDCDCDCDBDBDB98
:1007A000DADAD9D9D8D7D7D6D5D4D3D2D2D1D0CEF8
:1007B000CDCCCBCAC9C7C6C5C3C2C1BFBEBCBBB9FD
:1007C000B8B6B4B3B1AFAEACAAA8A7A5A3A19F9E7B
:1007D0009C9A98969492908E8C8A89878583817F43
:1007E0007D7B79777573716F6D6B69686664626024
:1007F0005E5C5A5957555351504E4C4A49474543F0
:1008000042403E3D3B3A3836353332302F2D2C2A8C
:100810002928262523221E0F05643214783C1E1E2B
:10082000140A0505010902A10185020901A10005BB
:10083000091901290815002501950875018102058E
:1008400001093009311581257F9502750881060956
:10085000381581257F950175088106050C0A380237
:100860001581257F950175088106C0C005010980A5
:10087000A101850319012AB700150126B7009501CA
:1008800075108100C0050C0901A101850419012A18
:10089000A002150126A002950175108100C0050176
:1008A0000906A101050719E029E7150025019508AA
:1008B000750181029501750881010507190029FF5D
:1008C000150026FF00950675088100050819012905
:1008D00005950575019102950175039101C0090205
:1008E0003B00020100A0FA0904000001030101001D
:1008F0000921110100012240000705810308000AB7
:100900000904010001030000000921110100012276
:100910007B000705820320000A120110010000007D
:1009200008EDFE1E1B0100010200011203640072AB
:10093000006100630075006C00610064000000103D
:10094000036D0061006E0067006F006900760000B3
:1009500000040309040011241FBECFEFDAE0DEBF5C
:10096000CDBF04B603FE27C080913D0390913E03A6
:10097000A0913F03B09140038730904BA740B04B0C
:10098000D1F410923D0310923E0310923F03109257
:10099000400314BE84B7877F84BF0FB6F894A89530
:1009A00080916000886180936000109260000FBEAB
:1009B000E0E0F8E3099511E0A0E0B1E0E4E3F1E65E
:1009C00002C005900D92AA3CB107D9F723E0AAEC2A
:1009D000B1E001C01D92AD33B207E1F70E94141FD0
:1009E0000C9498300C9400002F923F924F925F929B
:1009F0006F927F928F929F92AF92BF92CF92DF922F
:100A0000EF92FF920F931F93CF93DF93CDB7DEB793
:100A10002A970FB6F894DEBF0FBECDBFFC01008150
:100A2000D18083819481892B39F01FEFD11206C0C8
:100A300091E00F3F19F403C091E001C090E090FFF6
:100A400002C00C940F0F7F0185E0DE011696019025
:100A50000D928A95E1F7F70122818E819F812223F1
:100A600049F00E94692B182F682F8E819F810E9468
:100A7000E32B03C00E94B62B182F28E2129FF0012F
:100A8000112435E0D39EE00DF11D1124E00FF11D7E
:100A9000EE0FFF1FEF56FD4F059114918091CC0191
:100AA000811105C08091CF01882309F4B8C0C80125
:100AB00090568115E0E29E0720F0905E81159041EE
:100AC00040F4F7018581807F09F4A9C06801DD2425
:100AD00001C06801C60190548115954108F49FC07A
:100AE0008091CF01F7019281823021F5992369F03D
:100AF00080911803982F927219F06894D1F80FC062
:100B000086FF0DC0F4E1DF2A0AC0C60195558F3F6C
:100B1000910511F008F083C080E00E94182B81E05D
:100B20008093CF01D092CE01C092CD018FEF809300
:100B3000040136C6992309F472C0813009F05DC002
:100B4000809104012CE2C216D104D9F4882329F043
:100B50000E94E0151092040123C68091CD0190916E
:100B6000CE0195558F3F910509F018F40E94122B84
:100B700003C08AE20E94D5291092CF010E94F2158B
:100B80004EC03AE2C316D10421F48150809304018F
:100B900026C087FD32C081110BC08091CD0190919C
:100BA000CE0195558F3F910509F010F40E94E01594
:100BB000809104018F5F809304018DE2C816D104F7
:100BC00071F040F4E4E0CE1AD108F4E2CF16D1047B
:100BD00078F405C02DE2C21622E0D20649F4F701EE
:100BE00082818823E1F080911803811114C03CC0F8
:100BF000F7018281882399F00EC0EAE2CE16D10473
:100C000091F310F00C94000F24E0C21AD10834E2E2
:100C1000C316D10440F30E94F2151092CF0108369A
:100C20002DE5120741F4F7018281882309F4CBC036
:100C30008BEC91E016C009363DE5130708F079C149
:100C400000368DE51807D9F008F476C004368DE536
:100C50001807E9F5F7018281882309F4B4C08DEF04
:100C600091E00E949E15AFC00836FDE51F07D9F23E
:100C700008F0D9C100363DE5130709F041C1F7017D
:100C80008281882309F49FC080915A02982F909501
:100C900090FB80F980935A0240915A0250915B0276
:100CA00060915C0270915D0283E190E00E94CC2F24
:100CB00080915A0280FD35C020915B0240915E0216
:100CC00060915D0280915C020E94D0167CC0053666
:100CD0009DE5190708F0FCC00136EDE51E0709F097
:100CE00069C0F7018281882309F46DC080915A029E
:100CF00081FB222720F991E0922790FB81F98093D4
:100D00005A0240915A0250915B0260915C027091CC
:100D10005D0283E190E00E94CC2F80915A0281FF16
:100D200052C060911103709112038091130390914E
:100D300014030E940F2C47C0063DECE51E0708F087
:100D40008FC0043CFCE51F07C8F0F70182818823AF
:100D500071F080915A0280FF0AC020915B0240919D
:100D60005E0260915D0280915C020E94D016F701E4
:100D70008281811128C00E94FC1525C0093311050C
:100D800081F4F7018281882309F4DDC18091D001CB
:100D9000882319F01092D00116C081E08093D00111
:100DA00012C0033C2CE5120771F4F7018281811116
:100DB000F7C438C00336FDE51F0729F4F701828127
:100DC000882309F45DC01092E901083FFCE51F0784
:100DD00009F097C1F7018281882309F4B6C181E047
:100DE00080930501F7018281811167C38091180307
:100DF00082720C3C9CE5190709F43EC300F5073CE0
:100E0000FCE51F0709F424C308F0DCC2043C3CE500
:100E1000130709F413C308F0C6C2033CECE51E0730
:100E200009F04BC38091770280FF03C00E945716E0
:100E3000B7C481608093770261E086950EC0013D62
:100E40002CE5120709F427C308F0E4C20E3C9CE528
:100E5000190709F0CDC261E081E00E947416A0C4B8
:100E60000F353DE5130709F0AECFF70182818823E6
:100E700009F4A9CF69E188E092E00E94DE14A3CFD3
:100E8000809118030E94DD12C82E80911B030E94DE
:100E9000DD12D82E109218030E94122B69E18DE802
:100EA00092E00E94DE148C2D8D29827269E119F086
:100EB00085E892E002C08BE792E00E94DE1469E1CF
:100EC0008DE592E00E94DE1469E189E592E0D5CFDC
:100ED00006362DE5120741F4F7018281882309F4D3
:100EE00072CF87ED91E0BDCE07363DE51307C8F41C
:100EF000F7018281882309F466CF8EEE91E0B1CEAE
:100F000001368DE5180708F427C704363DE51307B9
:100F100009F4A0CE08F43CC70636FDE51F07E1F250
:100F200038F3F7018281882309F44DCF81ED91E0F8
:100F300098CE0F368DE5180759F4F7018281882382
:100F400009F441CF81E08093CF018DE290E01AC097
:100F500000379DE51907F0F00237EDE51E0709F4AB
:100F600081C008F09FC000372DE5120709F08CC042
:100F7000F7018281882309F426CF81E08093CF0195
:100F80008DE292E09093CE018093CD018FEF80931C
:100F9000040119CF0B36EDE51E0741F4F7018281FC
:100FA000882309F410CF8CEB91E05BCE0C36FDE585
:100FB0001F07C8F409362DE5120741F4F7018281B5
:100FC000882309F400CF85EC91E04BCE0A363DE54D
:100FD000130709F0F8CEF7018281882309F4F3CED4
:100FE0008FEB91E03ECE0D368DE5180741F4F70109
:100FF0008281882309F4E7CE8DEA91E032CE0E3665
:101000009DE5190710F1F7018281882309F4DBCEF1
:1010100081E08093CC010E94031A81FDD4CE89E344
:101020000E94D529D0CE0F363DE5130709F485CFB0
:10103000A0F40B369DE5190709F4B0CF08F4B6C645
:101040000D363DE5130799F2F0F6F701828188230A
:1010500009F4B9CE84EB91E004CE02379DE519077F
:1010600009F0B0C6F7018281882309F4ACCE81EE85
:101070000E94562989EA91E00E949E1581EE0E9405
:10108000172985E991E0EDCD01373DE5130709F01A
:101090009ACEF7018281882309F495CE82E080936D
:1010A000CF0191CE04378DE5180741F4F701828115
:1010B000882309F488CE8CE591E0D3CD04379DE5F3
:1010C000190790F4F7018281882309F47CCE81EE20
:1010D0000E94562981E991E00E949E1581EE0E94AE
:1010E00017298AE791E0BDCD0537EDE51E0709F028
:1010F0006ACEF7018281882309F465CE84E491E009
:10110000B0CD093FFCE51F0781F4F70182818823F8
:10111000E1F01092E401109205011092E6011092A4
:10112000E50181E00E941C1ABEC10A3FFCE51F07D1
:1011300061F4F7018281882341F0809105018823C1
:1011400009F44DCEE6CF1092E90180910501882384
:1011500009F4A9C11092E8011092E7012224239416
:10116000612C45E0742EAA24A394B12C64E3862E4E
:1011700062E0962EC090E701D090E80188E0C816A2
:10118000D10408F0CFC07C9CF0017D9CF00D1124AF
:10119000EA5FFE4F9081418144244A9480E0E92F28
:1011A000F42FE80FF11DE80FF11D2591349102177E
:1011B000130709F4482E232B11F08F5FF0CFFFEFB8
:1011C0004F1202C0512C91C03090E401F7015280BF
:1011D000552009F45DC07C9CF0017D9CF00D11242C
:1011E000EA5FFE4F950101C0220F4A94EAF794810D
:1011F000292B2483332031F3A50102C0440F551F4E
:101200008A95E2F741505109822F90E0481759071B
:1012100009F06BC082819381009719F00E94B71585
:1012200033C0F6013197E730F10520F4EA5AFF4F59
:101230000C9485308DE191E025C08CE191E022C0D5
:101240008CE490E01FC08AE290E01CC080911803FB
:10125000827229F09092D2018092D10106C024E3DB
:1012600030E03093D2012093D1018091D10190914F
:10127000D20108C084E190E005C083E390E002C0A1
:101280008BE290E00E94CD1531E03093E9012DC052
:10129000950102C0220F331F8A95E2F721503109D0
:1012A0007C9CF0017D9CF00D1124EA5FFE4F84814F
:1012B00090E02817390739F482819381009721F053
:1012C0000E94A11501C0312C7C9CF0017D9CF00D89
:1012D0001124EA5FFE4FC50101C0880F4A94EAF766
:1012E0008095948189238483532C6528222069F07A
:1012F0007C9CF0017D9CF00D1124EA5FFE4F91E093
:101300008481811190E0892F01C080E08170282EB6
:101310008091E7019091E80101969093E801809314
:10132000E70128CF8091E901882361F00E94512ACA
:101330009093E6018093E50180E00E941C1A611001
:101340002FC2B1C061100EC081E00E941C1A222081
:1013500009F4A9C01092E6011092E50181E08093A2
:10136000E401A1C0F7018281882309F419C28091A8
:10137000E401882309F414C20E94512A9093E601E3
:101380008093E501E091E301E83008F009C281E0D3
:101390008E0F8093E301F0E0EE0FFF1FED52FE4F42
:1013A00011830083FDC1053CFCE51F0709F44BC018
:1013B000063C2CE5120709F080C046E351E16FE3DB
:1013C00071E163C0093C3CE5130709F44BC008F424
:1013D00044C00A3CECE51E0709F449C00B3CFCE59F
:1013E0001F0709F06AC042E151E166E071E14DC0BA
:1013F0000E3CECE51E0708F444C00F3CFCE51F075B
:1014000009F446C0003D2CE5120709F056C068E01B
:1014100086E046C0053D3CE5130709F43FC008F4EB
:10142000BFC1063D9CE5190709F4BAC10E35EDE5CB
:101430001E0709F042C06EE189E132C04DEB56E172
:1014400066EC76E122C046EC56E16DEB76E11DC01C
:101450004FE351E166E371E118C04EE151E16AE208
:1014600071E113C04AE251E16EE171E10EC046E064
:1014700051E162E171E109C04BE85FE06CE97FE0B6
:1014800004C04CE95FE06BE87FE00E94A91A88C1C4
:1014900065E082E005C06EE089E002C068E18FE0AF
:1014A0000E94971A7DC1F7018281882309F49ECC9E
:1014B0000230FCE51F0708F053C0F7018281882342
:1014C00009F493C10B35FDE51F0709F443C058F437
:1014D00001153CE51307B9F00F3D1C4509F085C126
:1014E0000E94972A5DC10C359DE51907A9F10D35BC
:1014F0001D4509F07AC180911A0382FB882780F983
:1015000091E089272AC00E940C290E94B41660E04D
:1015100081E00E94741640E060E08FEF0E94550F5A
:10152000FFEF04E31CE0F15000401040E1F700C081
:10153000000087E797E790930108809300089AE0FE
:1015400088E10FB6F894A895809360000FBE909341
:101550006000FFCF81E001C080E00E944F2B45C1B9
:1015600006312CE5120730F0C8018B5F9C450997C6
:1015700008F0A3CF0E94862A90931A038093190340
:1015800000313CE5130709F4C3C008F041C008303E
:101590009CE5190709F49AC0F0F40430FCE51F0734
:1015A00009F487C068F402303CE5130709F477C0FA
:1015B00003301C4509F0E5C080911903826076C0B4
:1015C00006309CE5190709F46EC008F07BC08091D5
:1015D000190388606BC00C30FCE51F0709F485C057
:1015E00068F40A303CE5130709F474C008F079C0C8
:1015F0000E940C2980911903806858C00E309CE528
:10160000190709F476C008F07FC0809119038BC0D8
:101610000C3FFCE51F0709F44FC018F503313CE50A
:10162000130709F47DC078F401319CE5190709F42A
:1016300073C002311C4509F0A4C00E940C2980919E
:1016400019038F7733C00531FCE51F0709F472C019
:1016500008F486C00B3F1C4509F093C080911A0323
:101660003EC001158DE5180709F45FC058F40E3F20
:10167000ECE51E0709F444C008F43FC080911A034A
:1016800082602DC002302DE5120709F475C008F400
:101690005DC003301D4509F074C060E06EC08091EC
:1016A0001903816003C0809119038061809319033D
:1016B00068C08091190311C080911A0382608093E1
:1016C0001A035FC0809119038062F0CF80911903E3
:1016D0008064ECCF8091190388608460E7CF8160DB
:1016E000EECF809119038E7FE1CF809119038D7F1A
:1016F000DDCF80911903877FD9CF80911A0318C05D
:1017000080911A038D7FDBCF809119038F7ECECF1E
:10171000809119038F7DCACF809119038F7BC6CF2B
:1017200080911903877F8B7FC1CF80911A038D7FB2
:101730008E7FC5CF8091190382FB222720F991E08B
:10174000922790FB82F990FB83F9B0CF80911A0326
:10175000982F909591708E7F892B90FB81F9AFCF58
:101760000E940C298091190387FB222720F991E020
:10177000922790FB87F99ACF61E08EE090E00E947B
:10178000BA2F6091190310911A0384E090E00E942F
:10179000BA2F612F82E290E00E94BA2F0E940C299A
:1017A00080911503877009F43AC3F7018281882379
:1017B00009F435C382E02A960FB6F894DEBF0FBE57
:1017C000CDBFDF91CF911F910F91FF90EF90DF90F0
:1017D000CF90BF90AF909F908F907F906F905F90D1
:1017E0004F903F902F900C94402CF7018281008104
:1017F0001181882349F0C8010E94692BD82E682FD7
:10180000C8010E94E32B04C0C8010E94B62BD82E49
:10181000B8018D2D0E9420138C01982EF701D280E3
:10182000B580B2942FE0B22280911503877099F0B1
:10183000DD2089F0812F807F803421F080E2800FCD
:10184000883048F082E00E94402C80911503877018
:10185000CC24C3948111C12CA12EA2949FE0A92273
:101860008A2D90E08C30910508F039C2FC01E35AD2
:10187000FF4F0C948530812F807F1F70882311F0DB
:101880001295107FDD20B9F0112309F40BC280E21C
:10189000800F883010F0911006C080911803182B2B
:1018A0001093180305C080911703182B109317038A
:1018B0000E94222BF7C1802F0E941729112309F4BF
:1018C0000EC2005E1095083010F0911006C0809195
:1018D000180318231093180305C0809117031823C9
:1018E000109317030E94222BFAC1812F807F1F7053
:1018F000803211F01295107F802F992021F0F1E0B5
:101900009F16C9F027C0DD2069F080911B03B1103C
:1019100002C0812B17C001E0812BB01213C00E94BE
:10192000182BDDC1BB2021F021E0B21609F4D7C18C
:101930000E94122B16C0DD2041F035E03B1508F463
:10194000CEC1812F0E944F27CAC184E08B1508F4B5
:10195000C6C107C0DD2019F0BB2099F3A3C1B110A7
:10196000A8C1812F0E944427BAC1812F86958695F0
:10197000837019F0813059F0B2C1DD2019F0C8012F
:10198000937002C080E090E00E94ED19AEC1DD20AE
:1019900019F0C801937002C080E090E00E94D7194E
:1019A000A4C1802FDD2019F00E94481202C00E94BD
:1019B0008C110E94621199C1812F837009F069C056
:1019C000D11091C1902F929596959770990F990F7C
:1019D000802F8F70882E912CA12CB12C092E04C041
:1019E000880C991CAA1CBB1C0A94D2F704FF12C0D5
:1019F0004FE050E060E070E004C0440F551F661FE8
:101A0000771F9A95D2F7DB01CA0180959095A09532
:101A1000B09503C080E090E0DC0116951695412F4B
:101A20004370423019F1C8F400911C0310911D035A
:101A300020911E0330911F03413059F088299929C4
:101A4000AA29BB29BC01CD016023712382239323E2
:101A50000AC0802A912AA22AB32ABC01CD01682992
:101A600079298A299B290E947E2C3DC188299929A0
:101A7000AA29BB2900911C0310911D0320911E036C
:101A800030911F03BC01CD01602771278227932766
:101A9000EACFDD2019F0812F817001C0869588235F
:101AA00009F421C1902F929596959770990F990FEF
:101AB000802F8F70882E912CA12CB12C092E04C060
:101AC000880C991CAA1CBB1C0A94D2F704FF12C0F4
:101AD0004FE050E060E070E004C0440F551F661F07
:101AE000771F9A95D2F7DB01CA0180959095A09552
:101AF000B09503C080E090E0DC0116951695412F6B
:101B000043704230D9F068F500911103109112032F
:101B10002091130330911403413059F088299929F9
:101B2000AA29BB29BC01CD01602371238223932301
:101B30001EC0802A912AA22AB32A13C08829992973
:101B4000AA29BB29009111031091120320911303BC
:101B500030911403BC01CD016027712782279327A0
:101B600006C0BC01CD01682979298A299B290E94D8
:101B70000F2CB9C01F70DD2039F0812F0E945D2C21
:101B8000802F0E944F27AFC0802F0E944427812FB3
:101B90000E941B2CA8C0802F92EF991609F440C018
:101BA000991538F0E0EF9E1661F0F1EF9F1699F16C
:101BB00074C023EF9216D9F134EF931609F44EC096
:101BC0006CC0DD2019F184E08B1508F488C01F710A
:101BD00081E090E0A0E0B0E0AC01BD0104C0440FA2
:101BE000551F661F771F1A95D2F7809111039091A8
:101BF0001203A0911303B09114038A019B010827DB
:101C000019272A273B27C901B80121C025E02B1538
:101C100008F465C0DCCFDD2029F0812F8F7130C042
:101C2000DD20D9F3812F8F710E941B2C58C0DD203D
:101C300089F01F7181E090E0A0E0B0E0BC01CD012F
:101C400004C0660F771F881F991F1A95D2F70E944C
:101C50000F2C45C060E070E0CB01F9CFDD2099F09A
:101C60001F71812F0E945D2C80911A0382FD07C095
:101C700038E0139FC0011124836080931503812FE6
:101C80000E945D2C2CC081E00E94402C81E08B15CD
:101C900030F582E00E94402C22C0DD2039F0BB20CC
:101CA00009F4BBCF802F0E94562919C0BB2009F42C
:101CB000B9CF893341F49FEFE7EEF3E09150E04074
:101CC000F040E1F707C01FE728E331E01150204062
:101CD0003040E1F700C00000802F0E94172988EFF4
:101CE0008A0D843010F40E94101ACC20A9F0809143
:101CF000150380FD11C0F7011282859585958595A4
:101D00000E945D2CC7010E94F40480911503859503
:101D1000859585950E941B2C85E0F701DE011196C3
:101D200001900D928A95E1F789819A810E94B62BE4
:101D30009A8108E2809FF001112415E0919FE00D47
:101D4000F11D11248981E80FF11DEE0FFF1FEF56E1
:101D5000FD4F8591949163C0063D9CE5190790F471
:101D6000043CECE51E0710F00C94A50609331105A0
:101D700011F40C94C606033CFCE51F0711F40C9407
:101D8000D50621C80F352DE5120709F46EC81BC80A
:101D900001369DE5190711F40C9471060336EDE543
:101DA0001E0711F40C94DE060C94E3060936FDE5DB
:101DB0001F0709F403C90A362DE5120709F40BC9F8
:101DC0000C94E3060337EDE51E0760F40037FDE5EC
:101DD0001F0709F4CDC801372DE5120709F459C9C9
:101DE0000C94E30604373DE5130709F45FC908F4D2
:101DF00069C905379DE5190709F47BC90C94E30609
:101E00008DE2C816D10411F40C94F3059DE2C916B5
:101E100092E0D90611F00C940B060C94F3052A9667
:101E20000FB6F894DEBF0FBECDBFDF91CF911F91EB
:101E30000F91FF90EF90DF90CF90BF90AF909F9069
:101E40008F907F906F905F904F903F902F9008956C
:101E50009C013A9521153F4138F5DC01AA27B27063
:101E6000AC01442754709C012227387094FF0FC0A6
:101E700090FF02C080E101C080E0AB2B09F08062DE
:101E8000452B09F08064232B69F080680BC0892FF3
:101E90008170AB2B09F08260452B09F08460232B05
:101EA00009F08860FB01099408959091770290FFF2
:101EB0000CC0E3EFF1E0818360834283339692E0CC
:101EC000E131F907C1F70C948A1C089580917702DB
:101ED000282F269530E02115310519F48170826094
:101EE00005C02F31310524F081708C638093770217
:101EF0000895CF92DF92EF92FF926B017C010E94D6
:101F0000660FB701A60188E090E0FF90EF90DF90A8
:101F1000CF900C94CC2F80917B02882319F08150B4
:101F200080937B02609177027091780280917902B0
:101F300090917A020C94790F80917B02833018F48F
:101F40008F5F80937B02609177027091780280911D
:101F5000790290917A020C94790FE7E7F2E083E03E
:101F6000808311828FEF828383831482ACE7B2E097
:101F700012968C911297836012968C936081718176
:101F8000828193810C94790FAF92BF92CF92DF92AE
:101F9000EF92FF920F931F93CF93DF93E82EF62ECD
:101FA000E901E42FF0E0611106C0EF5EF94FE49122
:101FB0004E2F2E2F71C0062F10E0EF5EF94F449187
:101FC000F42FC42ED12C26E0829FC00111242FEFC4
:101FD00030E0B9010E945D305BEA5603C001579FB3
:101FE000900D11248E0D911D8E0D911D582F550FA2
:101FF000580FD901A01BB10BAC9DC001AD9D900D38
:10200000BC9D900D1124E92FF59ED0011124AB2F1A
:10201000BB277901EA1AFB0AEC9CD001ED9CB00DBC
:10202000FC9CB00D11245901A51AB108A09E7001A5
:10203000A19EF00CB09EF00C1124EF2CFF242E1961
:102040003F092C9D80012D9D100D3C9D100D1124EC
:10205000212F6230710591F048F461157105E1F0AE
:1020600061307105B9F4242F4B2F16C0643071050F
:1020700069F040F06630710579F00CC0242F492FCB
:10208000E12F0AC0492FEF2F2B2F06C0292FE42F55
:10209000412F02C0292FEB2F49832883EA83DF9148
:1020A000CF911F910F91FF90EF90DF90CF90BF9055
:1020B000AF9008955F926F927F928F929F92AF92AE
:1020C000BF92CF92DF92EF92FF920F931F93CF9325
:1020D000DF9300D01F92CDB7DEB7182F762E042FD6
:1020E000622E9091770290FF7EC0E92FE695AE2F89
:1020F000B0E0AB5ABE4F8C9180937C029E7F9230B1
:1021000061F49E012F5F3F4F812F0E94C40F4B81CE
:1021100069818A810E94550F43C0823019F4009171
:102120007A023EC0863019F41091780239C08930A5
:10213000D9F38F30A9F5EF508E2F8170582EE69588
:10214000F0E0EF5EF84FA590B49083EFC82E81E0E9
:10215000D82EE12CF12CBB249AE0892E912CAE9C38
:10216000C001AF9C900DBE9C900D1124B4010E9443
:102170005D30812F511002C0860F01C0861B960171
:10218000402F672D0E94C40F8FEFE81AF80A83E0F2
:10219000C80ED11C8AE0E816F10409F70E948A1CD7
:1021A00080917802181308C080917902781204C0D7
:1021B00080917A02081729F080917E0282608093D4
:1021C0007E02109378027092790200937A02662060
:1021D00051F060917702709178028091790290912C
:1021E0007A020E94790F0F900F900F90DF91CF919C
:1021F0001F910F91FF90EF90DF90CF90BF90AF9025
:102200009F908F907F906F905F900895E7E7F2E046
:10221000438128E0421B08F440E021E06281818193
:102220000C945A10E7E7F2E0438128E0420F08F4EB
:102230004FEF21E0628181810C945A10E7E7F2E0D0
:10224000628128E0621B08F460E021E04381818123
:102250000C945A10E7E7F2E0628128E0620F08F47C
:102260006FEF21E0438181810C945A10E7E7F2E09F
:10227000818121E04381628188500C945A10E7E704
:10228000F2E0818121E043816281885F0C945A10E1
:10229000CF93DF9300D01F92CDB7DEB79091770236
:1022A00090FF0AC09E012F5F3F4F0E94C40F4B81D9
:1022B00069818A810E94550F0F900F900F90DF91D6
:1022C000CF9108950E94512A20919202211104C0B9
:1022D00020919302222321F090938F0280938E020B
:1022E00020919402211104C020919502222321F013
:1022F00090938C0280938B02E0916102F0916202D4
:10230000309749F082E0809390020480F581E02DBF
:1023100080E992E0099408958D3E39F490919302FA
:1023200097FF35C01092930259C08E3E29F49091C8
:1023300093021916BCF32BC0909192028F3E29F4A0
:1023400097FF25C01092920249C0803F19F41916D8
:10235000CCF31DC090919402893F29F41916BCF466
:10236000109294023BC08A3F19F497FF10C0F8CF37
:102370008B3F39F49091950297FF09C01092950216
:102380002DC08C3F21F4909195021916BCF39FE06B
:10239000980F983080F421E030E0A90102C0440F8A
:1023A000551F9A95E2F7CA01809590919102892371
:1023B0008093910213C08D3F21F48091B7028E7FEC
:1023C0000BC08E3F21F48091B7028D7F05C08F3FF7
:1023D00029F48091B7028B7F8093B702809192029B
:1023E000811106C080919302811102C010928D026A
:1023F00080919402811106C080919502811102C0E2
:1024000010928A0208958091B70280FD16C081FD66
:1024100016C082FD18C080918A02882391F088320C
:1024200090F428E0829FC001112468E270E00E94CD
:102430007130862F672B29F007C082E0089584E071
:10244000089581E0089588E008958091B70280FDA5
:1024500017C081FD17C082FD19C080918D028823AD
:1024600099F08C3398F423E2829FC00111246CE32D
:1024700070E00E947130862F672B49F481E0089547
:1024800088E0089581E1089585E0089583E2089544
:102490008D3E21F40E942512819504C08E3E29F4C0
:1024A0000E9425128093930208958F3E21F40E948A
:1024B0002512819504C0803F29F40E942512809343
:1024C00092020895893F19F40E94031205C08A3FC1
:1024D00031F40E94031281958093940208958B3FFA
:1024E00021F40E940312819504C08C3F29F40E94BC
:1024F00003128093950208959FE0980F983078F426
:1025000021E030E0A90102C0440F551F9A95E2F77F
:10251000CA0190919102892B8093910208958D3F79
:1025200021F48091B70281600BC08E3F21F480912D
:10253000B702826005C08F3F29F48091B7028460A2
:102540008093B70208958091F201811118C08091A3
:10255000D80080618093D8008AE18A95F1F700C0A5
:102560008091D90080FD02C082E001C081E08093AB
:10257000F201823021F40E94B1251092AD0281E077
:102580009091F201913009F080E00895F894E82FDD
:10259000E295EF70F0E031A1282F2F7081E090E0FC
:1025A00001C0880F2A95EAF7982F9095932391A35D
:1025B00092A1892B82A3789408959091190392FF98
:1025C0000DC0282F2871283019F4877F846006C039
:1025D000282F2471243011F48B7F886093FF0DC065
:1025E000282F2871283119F4877E846106C0282F8E
:1025F0002471243111F48B7E886120911A0320FF0D
:102600000DC0382F3871383019F4877F816006C0CB
:10261000382F3171313011F48E7F886021FF0DC069
:10262000282F2871283119F4877E816106C0282F50
:102630002171213111F48E7E886194FD877E089589
:10264000CF93DF9328E2829FC0011124FC0135E083
:10265000739FE00DF11D1124E60FF11DEE0FFF1F1A
:10266000EF56FD4FC591D491CE01C238D10569F125
:10267000B0F4C133D10509F475C048F4C932D105AD
:1026800009F469C0CA32D10509F473C085C0C533E5
:10269000D10509F459C0C933D105B9F07DC0C33E95
:1026A000D10571F138F4C03ED105B1F0C23ED1057B
:1026B00011F172C0C63ED105B9F1C73ED105C9F1CD
:1026C000C43ED10509F068C024C02091190320FD43
:1026D0005DC021FD5BC060C02091190320FD50C08A
:1026E00020911A0320FF67C18091190384FD61C105
:1026F00083EE90E060C12091190322FF5CC1F4CF0A
:102700008091190382FD3FC080911A0380FD3EC075
:10271000EBCF20911A0321FF4EC18091190384FD54
:1027200048C187EE90E047C12091190323FF43C1C0
:10273000F4CF8091190383FD2CC080911A0381FF8F
:10274000ECCF84EE90E037C12091190325FF33C10F
:1027500089E290E030C12091190325FF2CC185E367
:1027600090E029C12091190326FF25C18AE290E05B
:1027700022C12091190326FF1EC181E390E01BC1F5
:1027800089E390E018C182EE90E015C180EE90E000
:1027900012C186EE90E00FC1C11530E5D30708F0F5
:1027A00067C0C11540E4D40720F0CE019F70906A45
:1027B00002C1C83ED105B8F5C03ED10508F0FBC046
:1027C000C83AD105B8F4C53AD10550F08C2F855AD6
:1027D000E82FF0E0E756FE4F808190E09064EBC078
:1027E000C130D10509F4E7C008F4E3C0249708F428
:1027F000E0C0E1C0CF3BD10560F48C2F885AE82FB0
:10280000F0E0EE0FFF1FE456FE4F8081918194644B
:10281000D2C0C03CD10508F4CCC0FE01EE0FFF1FB2
:10282000EF56FB4F0EC0C11520E2D20768F0C1156C
:1028300040E3D407A8F4FE01FF70EE0FFF1FEF5E28
:10284000F94F85919491B7C0C11531E0D30708F0D5
:10285000B2C0CD3ED10508F4ACC0CE019065ABC08E
:10286000CE019927D3FF02C0986CA5C0906CA3C07D
:10287000C11585E5D80708F05BC0C11524E5D2076E
:1028800028F09C2F8827846F906A95C0C11532E587
:10289000D30738F5C11541E5D407F0F4CE0174E053
:1028A000969587957A95E1F7282F23703C2F337002
:1028B00081E090E002C0880F991F3A95E2F79C688A
:1028C000922BEC2FEF70E695E69540E2E49FF00145
:1028D00011248E2B9F2B6FC09C2F8827816F906AAD
:1028E0006AC0AE01437055272C2F26952695C11539
:1028F000D34578F481E090E002C0880F991F4A9593
:10290000E2F740E2249F90011124822B932B9C68D4
:1029100052C081E090E002C0880F991F4A95E2F70B
:1029200040E2249F90011124822B932B9A6843C08C
:10293000C11529E5D207B0F4C11538E5D30728F051
:102940009C2F8827806F906A36C0C11546E5D40752
:1029500080F58C2F0E94DD128F7190E0982F8827D0
:10296000906229C0C1158AE5D80790F48C2F8F702A
:102970000E94DD12FE0194E0F695E7959A95E1F745
:10298000EF70F0E0FE2FEE27F0699F01282B0FC0BB
:10299000CE0190568115904260F48D2F8F710E9468
:1029A000DD12FE01FF27F0628F719F01382BC901F4
:1029B00002C080E090E0DF91CF9108959F92AF92A6
:1029C000BF92CF92DF92EF92FF920F931F93CF931C
:1029D000DF93EC01A62E8AE0982EFE01249122239B
:1029E00009F4A0C0213009F03DC0319684918130B6
:1029F00021F42296FE01849184C0823031F4229623
:102A0000FE0184910E94562980C0833031F42296C1
:102A1000FE0184910E94172978C0843009F074C0A7
:102A20002296FE01249180E090E030E020533109AD
:102A30002A30310560F4989EA001999E500D112412
:102A4000C901840F951F2196FE012491EECF0097B6
:102A500009F45BC0EFE9FFE03197F1F700C0000037
:102A60000197F5CFE22FF0E0EF56FA4FB490822FA6
:102A700086958695869590E0FC01EF57FA4FE49095
:102A80002770F12C022E02C0F594E7940A94E2F725
:102A9000F1E0EF22FF24FC01EF58FA4FC490D12C53
:102AA000022E02C0D594C7940A94E2F731E0C32203
:102AB000DD24FC01EF59FA4F049110E002C0159596
:102AC00007952A95E2F701701127E114F10419F036
:102AD00081EE0E945629C114D10419F086EE0E949D
:102AE00056298B2D0E94D529CD2819F086EE0E94FB
:102AF0001729EF2819F081EE0E941729012B29F0E0
:102B00008CE20E94D52901C0EF0121968A2D8823ED
:102B100009F463CFEFE9FFE03197F1F700C000005F
:102B20008150F5CFDF91CF911F910F91FF90EF90E2
:102B3000DF90CF90BF90AF909F90089560E00C948D
:102B4000DE14CF93DF93EC010E941729CE01805E43
:102B50009109089710F0209719F464E477E202C015
:102B60006FE277E2CE01DF91CF910C94280FCF93E3
:102B7000DF93EC01805E9109089710F0209719F41B
:102B80006FE477E202C06AE377E2CE010E94280F89
:102B90008C2FDF91CF910C945629CF93DF93EC01CA
:102BA0000E94B7152FE788E391E0215080409040C4
:102BB000E1F700C00000CE01DF91CF910C94A11588
:102BC0008091CD019091CE019C0135552F3F31056B
:102BD00009F030F484FF02C08295807F0C94182B9A
:102BE0000C94CD151092CC010E94031A81FF03C0F2
:102BF00089E30C94D52908958091770280FF02C063
:102C0000869501C080E080935B028091780280937A
:102C10005C028091790280935D0280917A028093B8
:102C20005E0280917B0280935F0240915A02509134
:102C30005B0260915C0270915D0283E190E00C9414
:102C4000CC2F811106C0662311F089EA15C08AEAEB
:102C500013C0823051F4662319F080E591E002C080
:102C60008FE491E00E94CD1509C0833039F46623CA
:102C700011F089EF01C08AEF0E94D52981E0089503
:102C8000E7E7F2E080818E7F80830E94AF1AECE755
:102C9000F2E08281816082832FEF80E792E0215011
:102CA00080409040E1F700C000000C948A1CE7E7E8
:102CB000F2E080818E7F8083608171818281938147
:102CC0000E94790F0E94AF1AECE7F2E082818160E6
:102CD00082832FEF80E792E0215080409040E1F71F
:102CE00000C000000C948A1C9091770290FF3BC0BA
:102CF0009170811102C0926006C08F3110F09C6308
:102D000002C0880F982B9093770280917E02816099
:102D100080937E02662351F0609177027091780271
:102D20008091790290917A020E94790F60917702E6
:102D3000669570E04BE050E08EE291E00E948B30AF
:102D4000892B19F00E94AF1A02C00E94181C81E062
:102D50008093740220E040917A0260917902809120
:102D600078020C945A100895E7E7F2E080818160C0
:102D7000808360E086950C94741680917702869526
:102D8000815009F48EE161E00C9474168091770211
:102D900086958F5F8F3108F081E061E00C947416A6
:102DA0001F93CF93DF93C82FD62F142F822F60E06D
:102DB0000E94741620E0412F6D2F8C2FDF91CF9150
:102DC0001F910C945A10CF92DF92EF92FF926B01F9
:102DD0007C0120915A0220FF9DC080911C0390919C
:102DE0001D03A0911E03B0911F038C299D29AE29BC
:102DF000BF29AD016627772741155105610571058A
:102E000021F0DB01CA01E0E101C0E0E0492F5A2FC7
:102E10006B2F7727411551056105710519F0E85FA2
:102E2000DB01CA01AC01BD0134E076956795579589
:102E300047953A95D1F7411551056105710519F08E
:102E4000EC5FDB01CA01AC01BD01F2E0769567954C
:102E500057954795FA95D1F74115510561057105CB
:102E600019F0EE5FDB01CA01B695A7959795879596
:102E7000892B8A2B8B2B09F0EF5F8E2F90E0893006
:102E8000910508F041C0FC01E759FF4F0C948530D3
:102E90008091D001882329F021E04FEF6FEF87EA7E
:102EA00037C021FF09C020915B0240915E02609112
:102EB0005D0280915C022CC021E04FEF6FEF80E05B
:102EC00027C021E04FEF6FEF85ED22C021E04FEFEB
:102ED0006FEF85E51DC021E04FEF6FEF8FEB18C05E
:102EE00021E04FEF6FEF8BE213C021E04FEF6FEF68
:102EF00080E80EC021E04FEF6FEF80E109C021E0D4
:102F00004FEF6AE08AE004C021E04FEF6FEF8AE6FE
:102F10000E94D016C701B601FF90EF90DF90CF90CE
:102F200008950C94E3168F929F92AF92BF92CF9226
:102F3000DF92EF92FF920F931F93CF93DF9300D016
:102F400000D0CDB7DEB784E7C82E81E0D82E97E455
:102F5000E92E92E0F92E470100E0AA24A394B12CB7
:102F6000B601D6018C91F894E82FE295EF70F0E06D
:102F700021A18F70A50102C0440F551F8A95E2F769
:102F8000CA01922F982B91A392A18095892382A3A5
:102F9000789400C0ECE7F1E020E030E010E04191EF
:102FA000842F82958F7090E0DC0190968C9190E058
:102FB0004F7002C0959587954A95E2F780FD07C04E
:102FC0008A2D022E01C0880F0A94EAF701C080E022
:102FD000182B2F5F3F4F2530310509F7BFEFCB1A74
:102FE000DB0AFB0180810E94C612F0EAFA95F1F734
:102FF000D4018C91181719F01C9381E001C080E076
:10300000082BBFEF8B1A9B0AE8E7CE16E1E0DE063D
:1030100009F0A6CF10915002002349F081E080937F
:10302000EC010E94512A9093EB018093EA01809178
:10303000EC018823B9F08091EA019091EB010E94A4
:10304000192A069778F0E12FF0E0EA59FD4FD701F1
:103050008D917D018193BBE4EB16B2E0FB06B9F7DD
:103060001092EC010E94A31260915002882309F48F
:10307000B7C019821A821B821C82862F90E0BE0183
:103080006F5F7F4F8A599D4F0E94302D811117C06D
:103090008091F1018F5F8093F101863040F1E091E2
:1030A0004F02F0E0EA59FD4FDE011196CE01059680
:1030B00011921D928A179B07D9F711E019C010923F
:1030C000F101E0914F02F0E0EA59FD4FDE01119667
:1030D0009E012B5F3F4F10E08D919081981711F06A
:1030E000808311E031962A173B07B1F701C010E049
:1030F000809105018823A1F08091E401882381F06B
:103100008091E5019091E601009751F00E94192A03
:103110008C34910528F01092E40181E00E941C1A81
:103120008091F001811103C081E08093F0018091D2
:103130005302882309F43FC00E94A3128823D9F1C7
:103140008091EE019091EF010E94192A0B9798F15E
:103150008091ED018F5F8093ED012091540290E00A
:10316000820F911D6FEF70E00E94713020E04FEFF1
:103170006FEF0E945A100E94512A9093EF018093A2
:10318000EE018091ED018F3FB1F4109253028091D6
:103190005502811102C00E94401680915A0280FFA0
:1031A0000AC06091110370911203809113039091F2
:1031B00014030E94E3160E94031A86958170909171
:1031C000D0018917C1F08093D001609111037091F3
:1031D000120380911303909114030E9491170BC066
:1031E00070E06A597D4F80914F0290E08A599D4F5F
:1031F0000E94622D10E0011102C0812F02C081E007
:1032000090E00F900F900F900F90DF91CF911F9152
:103210000F91FF90EF90DF90CF90BF90AF909F9075
:103220008F9008950895CF93DF93EC01E7E7F2E0E4
:10323000438162818C810E9448118C818F5F8C83D5
:10324000DF91CF910895CF93DF93EC01EC81F0E013
:10325000EA5EF84F4491E7E7F2E0628181810E94E3
:1032600048118C818F5F8C83DF91CF9108951F93DC
:10327000CF93DF93CDB7DEB767970FB6F894DEBF75
:103280000FBECDBF342F4B8B252F5C8B6D8B7E8B70
:103290008F8B4E895F8961111092170386E0FE01C2
:1032A0003D96DF01982F1D929A95E9F73D872E876D
:1032B0006F87598B488BDE01179601900D928A9586
:1032C000E1F7CE0107960E94592781113EC086E0A2
:1032D000FE013796DE01119601900D928A95E1F775
:1032E000FF81E8856A857B856115710531F0EF3FC7
:1032F00031F481E0FF3F19F403C081E001C080E0B8
:1033000080FD23C02091C60230E0C901019687707C
:1033100099274091F70250E08417950779F1F983D6
:10332000EA837D836C8396E0929FD001939FB00DDA
:103330001124A953BD4FFE01319601900D929A952B
:10334000E1F78093C6020E94882C16E08091F70274
:103350009091C6028917F9F0189FC0011124895372
:103360009D4F0E9459278823B1F08091F70290E089
:103370000196877099278093F702E8CF0E940C2965
:103380001092C6021092F702E0ECF2E086E0DF0154
:103390001D928A95E9F767960FB6F894DEBF0FBEC7
:1033A000CDBFDF91CF911F9108950C94282A2091D1
:1033B0004502309146022817390771F09093460272
:1033C00080934502E0916102F0916202309721F012
:1033D0000084F185E02D09940895209143023091F5
:1033E00044022817390771F09093440280934302F6
:1033F000E0916102F0916202309721F00680F7813E
:10340000E02D09940895E0916102F09162023097F5
:1034100011F480E008950190F081E02D0995089560
:10342000E0916102F0916202309721F00190F08109
:10343000E02D099480E00895CF939091E3019923C2
:10344000C9F0882311F0C0E003C01092E30112C05C
:103450008091E301C817C8F7EC2FF0E0EE0FFF1FD3
:10346000ED52FE4F808191810E94B7150E94222B60
:10347000CF5FEECFCF910895CF92DF92EF92FF9280
:103480000F931F93CF93DF936C01F12C80E0D091C9
:103490005202DF0DF601C1916F010D2F10E00F57A1
:1034A0001D4FF8019081C91BEC2E1E145CF4EA94A8
:1034B000F80180818F5F808360E08D2F0E9421164C
:1034C00081E0F3CF9C2FC7FD90E0C91BCC2359F0BE
:1034D000CF5FF80180818150808361E08D2F0E9451
:1034E000211681E0F3CFF394F2E0FF12D0CF8823CE
:1034F00051F0DF91CF911F910F91FF90EF90DF90EE
:10350000CF900C94D519DF91CF911F910F91FF901F
:10351000EF90DF90CF900895E0918702F0E0EF57B1
:10352000FD4F20813181FC013183208308959091EA
:10353000770290FF04C09695981740F003C0811160
:1035400005C090E0961710F40C94C61661E00C9438
:103550007416882311F0FA0101C0FB010994ECE70D
:10356000F2E011828281846082830895FF920F933A
:103570001F93CF93DF9382E084BD93E095BD9AEFD4
:1035800097BD80936E0010925602109257021092CF
:103590005802109259028EE090E00E94A62F91E00E
:1035A000811101C090E0909339010E94A312811112
:1035B0000E94072D8091390180913901811102C04B
:1035C00094E001C090E09093500284E0891B8093C6
:1035D0004F0284E90E94C61286E60E94C61287E95D
:1035E0000E94C61286EC0E94C61284EF0E94C61288
:1035F00085EF0E94C61286EF0E94C61287EF0E94D6
:10360000C61281E30E94C612E7E4F2E0A6E6B2E049
:103610008FE492E011921D928E179F07D9F780E0F8
:1036200090E00E94B42F8A3E9E4F11F00E94972A8C
:1036300082E090E00E94A62F809397020E94862A43
:1036400090931A038093190383E090E00E94A62FC1
:10365000682F70E080E090E00E947E2C6091110362
:103660007091120380911303909114030E9491179B
:103670000E94A312811102C00E940D2D809151025F
:1036800081113BC080E090E00E94B42F8A3E9E4FA3
:1036900021F00E94972A0E94AD0F88E090E00E94DE
:1036A000AE2F6093770270937802809379029093A3
:1036B0007A0280917E02836080937E026E7F71F435
:1036C0000E94AD0F88E090E00E94AE2F60937702D9
:1036D000709378028093790290937A020E94660F29
:1036E0000E94AF1A8091770280FF04C060E0869547
:1036F0000E94741681E080935102C8E8D2E067E925
:1037000071E045E951E001E010E0F2E0CA38DF077E
:1037100009F44DC0FB012191BF01A22FA295AF700A
:10372000B0E091963C9191972F70C801022E01C094
:10373000880F0A94EAF7982F9095932391969C937B
:10374000919792969C919297892B92968C939297AF
:10375000FA018191AF01E82FE295EF70F0E031A11D
:103760008F70F82EC8010F2C01C0880F0A94EAF759
:10377000982F9095932391A392A1892B82A3909641
:103780008C9190E002C0959587952A95E2F781701B
:1037900020A130E002C035952795FA94E2F720FD8C
:1037A00002C090E001C092E0892B8993AECF809156
:1037B0003901811102C092E001C090E0909387022C
:1037C00082E0891B809352021092D001809177028F
:1037D00081708093550280915A0280FD0E94B41638
:1037E0008091770280FF15C06091110370911203E0
:1037F00080911303909114030E94E3168091780244
:103800008093540260E081E00E94741681E080930E
:1038100053026091110370911203809113039091F0
:103820001403DF91CF911F910F91FF900C94E31639
:1038300060917702669570E04BE050E08EE291E097
:103840000E948B30892B19F481E080937D020E94C5
:10385000FE2C909372028093710280917E028460AC
:1038600080937E0208951F93CF93DF93EC01162F70
:103870008F8184FF06C0288539853093800220938C
:103880007F0280FF10C0888180FF0BC0809177028B
:103890008160809377028881612F86950E947416DB
:1038A00002C00E9440168F8181FF06C0212F4B81EC
:1038B0006A8189810E945A108F8182FF08C08E819F
:1038C000882319F00E94181C02C00E94AF1A8F8131
:1038D00083FF03C081E080937402DF91CF911F9139
:1038E00008959C0185E0E7E7F2E0D90101900D928F
:1038F0008A95E1F795E0ECE7F2E0D90115960190A1
:103900000D929A95E1F7089510927E0208958091A4
:103910007E0208958091770280FF0AC0539A8BB18E
:10392000877F9BB198602FB7F894E3EFF1E00BC06D
:10393000E3EFF1E0118210821282339632E0E1313E
:10394000F307C1F7EBCF32E0E131F30789F03191B2
:1039500048E09BB9000000C037FF8BB9330F00006F
:1039600000C000C000C08BB900C04A9591F7EBCFF2
:103970002FBF8FE594E00197F1F700C00000089594
:103980009F92AF92BF92CF92DF92EF92FF920F93EE
:103990001F93CF93DF93FC01A280948081E0848306
:1039A000E6E1F7E0B490E5E9F7E0E491C1E1D2E0C7
:1039B000F3EFEF2EF1E0FF2ECC24CA94D12CEB19BB
:1039C0000E2F10E022E02A1530F0809178028883D3
:1039D000809179028983911003C01B821A8255C09D
:1039E0008B818823F9F081508B832FEF829FC00158
:1039F00011246C8170E00E945D30FB01FF27EA5EBC
:103A0000F84F8491E82FEB192FEFE29FC0011124AA
:103A1000B8010E945D3080917A02689FB001112444
:103A20007A8333C00E94962F20917A0226952158DE
:103A300030E0A901440F551F322F2227240F351FD4
:103A4000232F33278217930704F582E08A1588F421
:103A50000E94962FB6010E94713088830E94962F93
:103A6000209179022695622F70E00E947130280F14
:103A700029831A8280917A02843120F0893C18F0DF
:103A800088EC01C084E18C838B8397014A81698132
:103A900088810E94C40F259623E0E20EF11C82E08B
:103AA000C334D80709F08ECFDF91CF911F910F91CA
:103AB000FF90EF90DF90CF90BF90AF909F900C94CD
:103AC0008A1CEF92FF921F93CF93DF93EC0183EF59
:103AD000E82E81E0F82E10E08C81970140917A0267
:103AE00060917902810F0E94C40F175E83E0E80E97
:103AF000F11C1A3F89F70E948A1C9A818C8190FFE1
:103B000002C08F5F01C081508C83DF91CF911F91E4
:103B1000FF90EF9008958091A2020895CF93DF93D4
:103B200000D01F92CDB7DEB79091AD02943019F559
:103B300089837B836A8382E08093E9008FEF909191
:103B4000E800815095FD06C095ED9A95F1F70000CB
:103B50008111F5CF8091E80085FF0DC040E050E075
:103B600063E070E0CE0101960E9478228091E80027
:103B70008E778093E8000F900F900F90DF91CF9198
:103B80000895BC0184E00C948E1DBC0183E00C946C
:103B90008E1D22E02093E9002FEF3091E8002150A4
:103BA00035FD06C035ED3A95F1F700002111F5CF4E
:103BB0002091E80025FF0BC040E050E066E070E097
:103BC0000E9478228091E8008E778093E800089523
:103BD000CF93DF9321E02093E9002FEF3091E800AD
:103BE000215035FD06C035ED3A95F1F70000211161
:103BF000F5CF2091E80025FF14C0EC0140E050E033
:103C000068E070E00E9478228091E8008E778093CF
:103C1000E80088E0FE01A3EAB2E001900D928A95E7
:103C2000E1F7DF91CF9108952091E4003091E50014
:103C300095E64091EC00842F817040FF23C0809175
:103C4000E80080FD1DC08091AD02882399F0853089
:103C500099F08091EB0085FD11C04091E4005091F6
:103C6000E5002417350729F3915011F09A01E1CFAF
:103C700084E0089582E0089583E0089581E0089546
:103C800080E008954091E80042FFDDCF08958091E3
:103C9000AF0287FF11C08091E80082FD05C08091CE
:103CA000AD028111F8CF11C08091E8008B770BC075
:103CB0008091AD02882349F08091E80080FFF8CF21
:103CC0008091E8008E778093E8000895982F9730D0
:103CD00068F59093E900981739F07091EC00209105
:103CE000ED005091F00003C0242F762F50E021FD0D
:103CF00002C09F5FECCF3091EB003E7F3093EB0032
:103D00003091ED003D7F3093ED003091EB0031605C
:103D10003093EB007093EC002093ED005093F00093
:103D20002091EE0027FDE5CF80E008958F7080930D
:103D3000E90081E008952091B5023091B60226177E
:103D4000370748F06115710539F42091E8002E77A6
:103D50002093E80001C0B901FC0120E06115710564
:103D600079F18091AD028823F1F18530F1F18091F4
:103D7000E80083FD3CC08091E80082FD2EC0809168
:103D8000E80080FFEBCF2091F3008091F20090E0FB
:103D9000922B6115710551F08830910538F421910D
:103DA0002093F100615071090196F3CF21E008974B
:103DB00009F020E08091E8008E778093E800CECF74
:103DC0002111CFCF0AC08091AD02882361F08530E8
:103DD00061F08091E80083FD0AC08091E80082FFD5
:103DE000F2CF80E0089582E0089583E0089581E0B5
:103DF00008950F931F930E94A312882321F01F910F
:103E00000F910C94282A0E94282A009156021091A2
:103E100057022091580230915902600F711F821F82
:103E2000931F1F910F910895CF93DF93CDB7DEB706
:103E300064970FB6F894DEBF0FBECDBF84B7877FFF
:103E400084BF0FB6F894A895809160008861809334
:103E50006000109260000FBE90E080E80FB6F8940A
:103E600080936100909361000FBE85B7806885BF25
:103E700085B7806885BF81EF99E29093CB018093ED
:103E8000CA0183E190E00E94AE2F60935A027093C2
:103E90005B0280935C0290935D028FEF80935E02E1
:103EA0000E94B1250E94D0258091E2008460809319
:103EB000E20078948091AD028823A1F01091E9008E
:103EC0001F709091EC00892F817090FD80E8182B75
:103ED0001092E9008091E80083FD0E94A4221F70E7
:103EE0001093E9000E94B61A8AE391E0909362026F
:103EF000809361028091AD02853009F060C0FF249B
:103F0000F39400E112E18091AD02853009F04AC0DE
:103F10008091AD02843009F433C00E94AF1A8091C1
:103F20006502811109C0F09265028091770281706B
:103F3000809364020E9440161092630228E130E0F0
:103F400040E40FB6F894A895209360000FBE40930C
:103F5000600083B7817F846083BF83B7816083BF44
:103F60007894889583B78E7F83BF0FB6F894A89511
:103F700080916000886180936000109260000FBEA5
:103F80008091AC02882309F4BECF0E949317E6E625
:103F9000F2E0819181118EC28EE692E08E179F072A
:103FA000C1F7B1CF0E940C290E94101A109265022D
:103FB0008091640281110E94B4160E94181C0E9414
:103FC000931781110E94282AE6E6F2E0A8E9B2E000
:103FD00000E010E0C02ED1908D918D2549F1E12CAB
:103FE000FF24F394982F9F21F1F00E94A3128823BD
:103FF00099F0EF82C886DF2081E009F480E08987AC
:104000000E94512A8160782F9B878A874F8158852B
:1040100069858B850E943719F801E856FD4F80812C
:10402000F826F0821AC0E394FF0C95E0E912DACF8B
:104030000F5F1F4F0830110569F68FEF8C878D8752
:104040001E860E94512A8160782F988B8F874C851D
:104050005D856E8588890E94371980917D0288234D
:1040600009F49AC090917C02E0917702E6958E2F38
:10407000891B80937302923061F4E82FF0E0E15ED7
:10408000F74FE4910E2F10E063E2C62E69E1D62EC1
:1040900034C0963061F4E82FF0E0E45EF74FE4912D
:1040A0000E2F10E053E1C52E59E1D52E26C09930D0
:1040B00069F4E82FE695F0E0E75EF74FE4910E2F04
:1040C00010E041E6C42E4DE1D42E17C0993179F4A9
:1040D00063E00E945130E92FF0E0EA5EF74FE4918F
:1040E0000E2F10E030ECC32E3CE1D32E06C000EDC5
:1040F00017E022E1C22E29E1D22E8091740288239A
:1041000061F0109274020E94FE2C909372028093D0
:10411000710210927602109275020E94FE2CE091BC
:104120007102F09172029C012E1B3F0B2F3F3F4703
:1041300098F5209170022223B1F010927002209124
:104140006E0230916F02821B930B8F3F9F4758F492
:10415000205D3A4830936F0220936E0280917E0278
:10416000886080937E02E0907502F09076020E0FD8
:104170001F1F109372020093710281E792E0F60113
:1041800009958091750290917602892B29F4EF2888
:1041900019F081E08093700288E8482E82E0582E62
:1041A00027E931E03C8B2B8B95E9692E91E0792E44
:1041B00005E812E081E991E09A8B898B5201420176
:1041C000D12C212CD401ED914D014E2F440F440FE1
:1041D000F50141935F01AB89BC892D91BC8BAB8B01
:1041E000E22FE295EF70F0E080A190E02F7002C026
:1041F000959587952A95E2F781709927F30151915A
:104200003F01E52FE295EF70F0E020A130E05F7014
:1042100002C0359527955A95E2F7F901E170FF271D
:1042200020FF02C0E2E0F0E0E82BF92BE42BD20102
:10423000ED932D01A989BA89ED90BA8BA98B3090A5
:104240008702320CEF70F0E0EF57FE4F9081F801DB
:104250008081890F8083F12C082E000C990B8E151C
:104260009F056CF0E32DF0E0EF57FD4F80818F5FED
:10427000808360E0832D0E94211621E001C020E0B0
:10428000D8018C91082E000C990B442755274E1904
:104290005F094817590764F0E32DF0E0EF57FD4F31
:1042A00080818150808361E0832D0E94211621E06E
:1042B000F8018081082E000C990BB7010E94713023
:1042C000D8018D938D01D22A2394B2E02B127ACF9C
:1042D000D1100E94D51986E0E0E9F2E0DE011196E6
:1042E00001900D928A95E1F7E0909202F09093028E
:1042F00000919402109195021092920210929302F2
:104300001092940210929502E11003C0FF2009F46C
:1043100051C080918E0290918F020E94192A9C01B7
:1043200090918D02992309F4DBC02131310508F405
:1043300041C09F3F19F09F5F90938D02EE2061F086
:104340000E9425121E1414F09FEF01C091E0899F76
:10435000802D112480939202FF2061F00E9425128B
:104360001F1414F09FEF01C091E0899F802D11244C
:1043700080939302309192023323E1F020919302D3
:104380002223C1F045EB3403C0011124992319F015
:104390009093920203C081E08093920235EB230355
:1043A000C0011124992319F09093930203C081E076
:1043B00080939302011103C0112309F451C080912D
:1043C0008B0290918C020E94192A9C0190918A0282
:1043D000992309F489C02536310508F441C09F3F6F
:1043E00019F09F5F90938A02002361F00E940312EC
:1043F000101614F09FEF01C091E0899F802D1124C9
:1044000080939402112361F00E940312111614F09C
:104410009FEF01C091E0899F802D11248093950228
:10442000309194023323E1F0209195022223C1F0D0
:1044300045EB3403C0011124992319F090939402A1
:1044400003C081E08093940235EB2303C001112463
:10445000992319F09093950203C081E0809395020F
:104460008091920281110BC080919302811107C04B
:1044700080919402811103C08091950281110E9464
:104480006211EB82FC820D831E8386E0FE01319671
:10449000A0E9B2E001900D928A95E1F70E94101A0E
:1044A00090919602891709F425CD0E94101A8093E5
:1044B000960220CD09BD19BD09B400FEFDCF809143
:1044C000D8008F7D8093D8008091E0008260809337
:1044D000E0008091E00081FDFCCF0E940C2913CD0B
:1044E000232B09F028CF66CF232B09F07ACFB8CF42
:1044F000EF92FF920F931F93CF93DF937C018B0179
:104500000E94141E811119C0E70101151105A1F0C7
:104510008091E80085FD0AC08091E8008E77809345
:10452000E8000E94141E882381F307C089918093BC
:10453000F10001501109E9CF80E0DF91CF911F9187
:104540000F91FF90EF9008951F93CF93DF93CDB716
:10455000DEB7AA970FB6F894DEBF0FBECDBFEFEA65
:10456000F2E08091F100819322E0E73BF207C9F786
:104570008091B002833009F460C030F4813071F072
:10458000823009F49AC0B1C08A3009F486C08B30F9
:1045900009F46BC0893009F0A8C020C08091AF0237
:1045A000813A09F0A2C08091E800877F8093E800FB
:1045B0008091B3029091B402892B21F468E083EAE0
:1045C00092E003C060E080E090E070E00E949B1EFB
:1045D0008091E8008B778093E80087C08091AF02DC
:1045E000813209F082C08091B3029091B4020297A7
:1045F00008F07BC08091E800877F8093E80080917D
:10460000E80082FD05C08091AD028111F8CF6DC038
:104610002091F3008091F20090E0922B029729F410
:104620008091F1008B7F813021F48091F1008093A3
:10463000A2028091E8008B7754C08091AF02813A4A
:1046400009F053C08091B3029091B402892B09F014
:104650004CC08091E800877F8093E8008091E8005B
:1046600080FFFCCF8091440137C08091AF0281323E
:10467000E1F58091B3029091B402892BB1F580915C
:10468000E800877F8093E8000E94471E8091B10276
:10469000809344010E940C2928C08091AF0281328E
:1046A00021F58091E800877F8093E8000E94471EF3
:1046B0008091B2028093A10218C08091AF02813A2A
:1046C000A1F48091E800877F8093E8008091E80062
:1046D00080FFFCCF8091A1028093F1008091E800DF
:1046E0008E778093E8000E94471E8091E80083FF48
:1046F000CCC18091AF029091B002492F50E04A3076
:10470000510508F0C2C1FA01EE58FF4F0C948530F4
:10471000803821F0823809F0B8C108C08091AB021E
:104720009091AC02992389F082600FC08091B3020E
:104730008F70873008F0A9C18093E9008091EB0069
:1047400085FB882780F91092E9009091E800977F17
:104750009093E8008093F1001092F10065C1282F3A
:104760002D7F09F092C1882319F0823061F08DC14C
:104770008091B102813009F088C1933009F080E066
:104780008093AC022EC08091B10281112AC0809129
:10479000B3028F702FEF280F263008F076C1809378
:1047A000E9002091EB0020FF1CC0933021F48091A0
:1047B000EB00806214C09091EB0090619093EB004D
:1047C00021E030E0A90102C0440F551F8A95E2F7AD
:1047D0004093EA001092EA008091EB008860809399
:1047E000EB001092E9008091E800877F20C18111E1
:1047F0004CC11091B1021F778091E3008078812B2A
:104800008093E3008091E800877F8093E8000E9416
:10481000471E8091E80080FFFCCF8091E300806814
:104820008093E300111102C082E001C083E0809315
:10483000AD022BC18058823008F027C18091B102AF
:104840009091B2028C3D53E0950779F583E08A831D
:104850008AE289834FB7F894DE01139620E03EE0A8
:1048600051E2E32FF0E050935700E49120FF03C0A2
:10487000E295EF703F5FEF708E2F90E0EA3010F01E
:10488000C79601C0C0968D939D932F5F243149F741
:104890004FBF8091E800877F8093E8006AE270E074
:1048A000CE0101960E949B1EAEC04091B302509172
:1048B000B402292F332723303105A9F068F42130C1
:1048C000310509F4F1C02230310509F0DEC08BE377
:1048D00090E0EEEDF8E044C02132310521F12232C2
:1048E000310571F1D2C0992781309105A1F058F0BE
:1048F000029709F0CAC0EBE2F9E0E4918E2F90E054
:10490000EBE2F9E02AC0E1E5F9E0E4918E2F90E0D6
:10491000E1E5F9E022C0EFE3F9E0E4918E2F90E0C9
:10492000EFE3F9E01AC04115510509F4C2C0413066
:10493000510509F0AAC089E090E0E9E0F9E010C073
:104940004115510509F4BAC04130510509F09DC027
:104950008BE790E0E3E2F8E003C0009709F495C02C
:104960002091E800277F2093E8002091B502309144
:10497000B6028217930708F49C0140E02115310527
:1049800089F18091AD02882309F43DC08530D9F1C9
:104990008091E80083FD37C08091E80082FD2FC040
:1049A0008091E80080FFEACF4091F3008091F2000F
:1049B00090E0942B2115310559F08830910540F491
:1049C00044914093F1003196215031090196F2CF84
:1049D00041E0089709F040E08091E8008E778093ED
:1049E000E800CCCF4111CDCF0AC08091AD02882321
:1049F00051F0853041F08091E80083FD04C0809142
:104A0000E80082FFF2CF8091E8008B778093E80086
:104A10003CC08038D1F58091E800877F8093E80022
:104A20008091AE028093F1008091E8008E778093B0
:104A3000E8000E94471E29C0811127C08091B10261
:104A40009091B2029927029704F58091E800877F40
:104A50008093E8001091B1021093AE020E94471EAD
:104A6000111106C08091E30087FD02C081E001C002
:104A700084E08093AD0242E061EC81E00E94661E1A
:104A800042E261EC82E00E94661E8091E80083FFB2
:104A90001AC08091E800877F8093E8008091EB0046
:104AA00080628093EB000FC082E190E0E9E1F9E0E1
:104AB00057CF89E090E0E0EFF8E052CF80E490E05B
:104AC000EEE9F8E04DCFAA960FB6F894DEBF0FBE20
:104AD000CDBFDF91CF911F9108951F920F920FB616
:104AE0000F9211242F933F934F935F936F937F9374
:104AF0008F939F93AF93BF93CF93DF93EF93FF93E6
:104B0000C091E900CF708091EC00D82FD17080FD6A
:104B1000D0E81092E9008091F000877F8093F00048
:104B200078940E94A4221092E9008091F00088609D
:104B30008093F000CD2BCF70C093E900FF91EF91EF
:104B4000DF91CF91BF91AF919F918F917F916F91A5
:104B50005F914F913F912F910F900FBE0F901F903B
:104B60001895E8EDF0E080818E7F80831092E2005E
:104B70001092DA001092E100A0EEB0E08C9181601A
:104B80008C9380818F77808319BCA7EDB0E08C91E6
:104B90008E7F8C9380818F7E80831092A0020895F7
:104BA000CF92DF92EF92FF920F931F93CF93DF93F9
:104BB000C8EDD0E088818F7E8883E7EDF0E08081CA
:104BC0008160808384E082BF81E08093A00288813D
:104BD0008E7F888302EE10E0F80110821092DA00D6
:104BE00081EEC82ED12CF601108288818F778883C0
:104BF00088818068888388818F7D888319BC109222
:104C0000AD021092AE021092AC021092AB0290EE86
:104C1000E92EF12CF70180818B7F80838881816070
:104C2000888342E060E080E00E94661EF601808199
:104C30008E7F8083F801808181608083808188609D
:104C40008083F70180818E7F808388818061888363
:104C5000DF91CF911F910F91FF90EF90DF90CF9058
:104C600008951F920F920FB60F9211242F933F9326
:104C70004F935F936F937F938F939F93AF93BF9364
:104C8000EF93FF938091E10082FF09C08091E200E1
:104C900082FF05C08091E1008B7F8093E1008091CD
:104CA000DA0080FF2AC08091D80080FF26C0809162
:104CB000DA008E7F8093DA008091D90080FF18C0DF
:104CC00080E189BD82E189BD09B400FEFDCF81E0AC
:104CD0008093AD028091A00281110FC00E94B12586
:104CE0000E94D0258091E20084608093E20005C09C
:104CF00019BC1092AD021092A0028091E10080FFD9
:104D000017C08091E20080FF13C08091E2008E7F87
:104D10008093E2008091E20080618093E2008091C4
:104D2000D80080628093D80019BC85E08093AD02E2
:104D30008091E10084FF2EC08091E20084FF2AC0B0
:104D400080E189BD82E189BD09B400FEFDCF80917B
:104D5000D8008F7D8093D8008091E1008F7E809372
:104D6000E1008091E2008F7E8093E2008091E2007A
:104D700081608093E2008091AE02882311F084E08C
:104D800007C08091E30087FD02C081E001C083E09D
:104D90008093AD028091E10083FF27C08091E20003
:104DA00083FF23C08091E100877F8093E10082E050
:104DB0008093AD021092AE028091E1008E7F8093CD
:104DC000E1008091E2008E7F8093E2008091E2001A
:104DD00080618093E20042E060E080E00E94661E15
:104DE0008091F00088608093F000FF91EF91BF9177
:104DF000AF919F918F917F916F915F914F913F9173
:104E00002F910F900FBE0F901F9018950E94AB2B03
:104E1000292F2F70E92FE295EF704E2F50E0FA0105
:104E20003297EE30F105B8F4E458FF4F0C9485301A
:104E3000803F99F018F4883E70F40FC0843F59F415
:104E40000CC0883E50F0813F31F407C0822F869518
:104E500086958695089580E0089581E008958823D9
:104E600041F08095909117038923809317030C9448
:104E7000222B0895882339F090911703892B809372
:104E800017030C94222B0895882341F0809590916C
:104E900018038923809318030C94222B08958823E8
:104EA00039F090911803892B809318030C94222BCE
:104EB00008959F92AF92BF92CF92DF92EF92FF92AE
:104EC0000F931F93CF93DF93CDB7DEB761970FB6E4
:104ED000F894DEBF0FBECDBF8C0185E0F801DE0186
:104EE0001D9601900D928A95E1F7F80190818181DC
:104EF000E2803091C0026091C1024091C3025091A2
:104F0000C4024115510531F06F3F31F421E03F3FBC
:104F100019F403C021E001C020E0F22FF1709F2EB0
:104F200020FD0AC1F801C380D48020ECA22E22E02B
:104F3000B22EF090C202F601E41BF50BFF2009F43B
:104F4000D1C02091C502E83CF10508F09CC0422F79
:104F5000407F09F051C0681311C039130FC0FE2CF7
:104F6000E1100CC02F7020612093C502C5010E9482
:104F7000F4048091C502F80185831EC1CD2831F06B
:104F80008F3F31F421E09F3F19F403C021E001C0BD
:104F900020E020FD03C021E02E2502C020E030E00B
:104FA000F22FF170FF2E20FF1DC02091F7024091DB
:104FB000C60256E0241709F4DDC030E0529FF0012C
:104FC000539FF00D1124E953FD4F6181861306C0F4
:104FD0006081961303C06281E61204C02F5F3F4FC9
:104FE0002770E8CFFE2CEE2009F4E6C08091C502C0
:104FF00081608093C50253C068130AC0391308C08A
:10500000E11006C0F8012583C8010E94F40474C0B1
:105010009D878E878D859E850E940627882369F14E
:10502000EE2059F12091C502822F82958F7090E079
:10503000029774F08091C0029091C10298878F838B
:105040001986DB86CA862C87CE0107960E94F40457
:1050500086E0F801A0ECB2E001900D928A95E1F7AC
:105060000E94922C0DC06817E1F09D878E878D8578
:105070009E850E94062781111EC0C8010E94F4046B
:10508000FF24F39499C0422F407F69F780EC92E0AF
:105090000E94F40486E0F50111928A95E9F7F12C5B
:1050A0008BC03913E2CFE110E0CFF8012583C801AE
:1050B0000E94F4043BC0EE2001F32091C502822F30
:1050C00082958F7090E002971CF28091C0029091BF
:1050D000C1029A8389831B82DD82CC822E83CE011A
:1050E0000196B4CFE83CF10508F5FE2CEE2029F23C
:1050F00068130BC0391309C086E0F801A0ECB2E0D8
:1051000001900D928A95E1F757C09D878E878D8516
:105110009E850E94062781119BCF8091C5028160E8
:105120008093C502C8010E94F40446C086E0F501E0
:1051300011928A95E9F740C0EE2009F49ECF9D8731
:105140008E878D859E850E940627F82E882309F478
:1051500094CF86E0F801A0ECB2E001900D928A9520
:10516000E1F78091C0029091C1020E94AB2B0E9496
:10517000922C22C09D878E878D859E850E94AB2BA9
:10518000292F22952F70223028F49F7039F0811139
:1051900005C00BC0243028F49F7049F4805E88302D
:1051A00020F0C8010E94F4049F2CF92C05C0F801DE
:1051B0009581907F99F7F9CF8F2D61960FB6F8946E
:1051C000DEBF0FBECDBFDF91CF911F910F91FF903A
:1051D000EF90DF90CF90BF90AF909F90089580E0C8
:1051E00090E00E94ED1980E090E00E94D7191092A3
:1051F0001703109216030E94222BE0E9F2E086E0EA
:10520000DF011D928A95E9F710928D0210928A02B1
:105210001092B7020C9462111092180386E0EAEB28
:10522000F2E0DF011D928A95E9F70C94EF288823BC
:10523000E1F19CEF980F913A60F4E8EBF2E0928193
:10524000891301C01282319642E0EE3BF407B9F7B0
:1052500014C090E2980F983090F4877021E030E00D
:10526000A90102C0440F551F8A95E2F7CA01809533
:10527000909118038923809318030C94222B9BE5AB
:10528000980F933020F480E090E00C94ED1998E5AD
:10529000980F973120F480E090E00C94D7198D3E60
:1052A00020F00E948C110C94621108950F931F93AB
:1052B000CF93882309F475C0C82F8CEF8C0F813AE7
:1052C00050F50AEB12E080EC92E0F8012191C21750
:1052D00021F08E179F07D1F70EC0E8EBF2E08EEBBE
:1052E00092E02281C21301C0128231968E179F076D
:1052F000C1F70E94222BEFEF80E0D8019D918D0134
:10530000C917C9F0EF3F19F4911101C0E82F8F5F61
:10531000863099F73DC080E28C0F883088F4C770E2
:1053200081E090E001C0880FCA95EAF790911803D8
:10533000892B80931803CF911F910F910C94222BEE
:10534000EBE5EC0FE33050F4F0E0E756FE4F8081E0
:1053500090E0CF911F910F910C94ED19E8E5EC0FBF
:10536000E73160F4F0E0EE0FFF1FE456FE4F80815E
:105370009181CF911F910F910C94D719CD3E88F058
:105380008C2F0E944812CF911F910F910C946211A3
:10539000EF3F89F20E2E000CFF0BE854FD4FC28345
:1053A000CACFCF911F910F9108951F93CF93DF9391
:1053B000182F893319F0C9E1D0E002C0C0E5D0E070
:1053C000812F0E9456298FE99FE00197F1F700C0D5
:1053D00000002197C1F7812FDF91CF911F910C948D
:1053E000172980E0089578941F920F920FB60F92BC
:1053F00011248F939F93AF93BF938091200390913B
:105400002103A0912203B09123030196A11DB11D98
:105410008093200390932103A0932203B09323034E
:10542000BF91AF919F918F910F900FBE0F901F90E2
:1054300018959C014FB7F894809120039091210317
:10544000A0912203B09123034FBF821B930B0895B9
:105450002FB7F8946091200370912103809122036B
:10546000909123032FBF0895CF92DF92EF92FF9286
:105470006B017C010E94A31281110EC00E94282A98
:10548000C61AD70AE80AF90AC0925602D092570201
:10549000E0925802F0925902FF90EF90DF90CF9087
:1054A00008952FB7F8948091200390912103A09143
:1054B0002203B09123032FBF08951F920F920FB6BE
:1054C0000F9211248F939F93AF93BF9380916302A8
:1054D000811113C08091200390912103A091220398
:1054E000B09123034196A11DB11D80932003909399
:1054F0002103A0932203B0932303BF91AF919F9107
:105500008F910F900FBE0F901F901895CF9384E04E
:1055100090E00E94A62FC82F82E290E00E94A62F62
:105520002C2F30E0A901582BCA01CF9108956AEEC3
:105530007EEF80E090E00E94D82F60E082E090E073
:105540000E94BA2F60E083E090E00E94BA2F109290
:105550001C0310921D0310921E0310921F0360E0A3
:1055600084E090E00E94BA2F60E082E290E00E9426
:10557000BA2F60E085E090E00E94BA2F60E086E0FC
:1055800090E00E94BA2F6FEF87E090E00E94BA2F60
:1055900040E050E0BA0188E090E00E94CC2F60E04B
:1055A0008DE090E00E94BA2F40E050E0BA0188E11F
:1055B00090E00E94CC2F60E087E190E00E94BA2F3B
:1055C00040E050E0BA018CE190E00E94CC2F60E016
:1055D00070E080E290E00E94D82F40E050E0BA01F5
:1055E00088E190E00E94CC2F40E050E0BA018FE0CB
:1055F00090E00E94CC2FEAE5F2E080E081608083B9
:1056000081E0818397EA92839FEF938394838583DC
:10561000408151816281738183E190E00E94CC2FAF
:105620000C94B61A80911B03811110921B030895EC
:1056300090911A0392FD05C090911B0398138093DB
:105640001B0308959091180380911703892B2091D3
:105650001603982F922B9093B80280911B038823F6
:1056600089F0892B8093B802EAEBF2E097E080E0C2
:10567000915029F021912223D9F38F5FF9CF811125
:105680000E94122BE0916102F0916202309731F09A
:105690000280F381E02D88EB92E009940895CF9386
:1056A000C0911A03C2FB992790F9981781F080FBEB
:1056B000C2F9C0931A036091190384E090E00E943C
:1056C000BA2F6C2F82E290E0CF910C94BA2FCF9139
:1056D0000895BF92CF92DF92EF92FF920F931F93A4
:1056E000CF93DF938C01C0901103D0901203E09010
:1056F0001303F090140380911C0390911D03A0915B
:105700001E03B0911F03C82AD92AEA2AFB2ACFE137
:10571000D0E0D701C6010C2E04C0B695A795979589
:1057200087950A94D2F780FD04C0219790F7B12C99
:1057300007C0BC2EB8018C2F0E9420130197A9F33B
:105740008B2DDF91CF911F910F91FF90EF90DF9004
:10575000CF90BF900895CF93DF93EC010E94692B07
:10576000BE010E942013DF91CF91089524E0929F03
:10577000900D1124890F682F669566956695982F70
:10578000977085E0689FB001112440E050E080E010
:10579000FB01E40FF51FE850FD4F208130E0092E9A
:1057A00002C0369527950A94E2F721703327042E1C
:1057B00001C0220F0A94EAF7822B4F5F5F4F4530FA
:1057C000510531F7089524E0929F900D1124890F1F
:1057D000E82FE695E695E695877051E001C0550FF4
:1057E0008A95EAF785E0E89FF0011124E850FD4F23
:1057F00020E030E070E04081CB01022E02C096959F
:1058000087950A94E2F78170819584278523842700
:1058100081932F5F3F4F2530310569F708950E942E
:105820009117609311037093120380931303909365
:1058300014030C94EF280F931F9341E050E060E0B5
:1058400070E004C0440F551F661F771F8A95D2F77A
:105850004095509560957095809111039091120339
:10586000A0911303B09114038A019B01082319230B
:105870002A233B23C901B8011F910F910C940F2CCF
:10588000209115038095822380931503982F97709C
:1058900041F430E0482F082E000C550B2417350733
:1058A00021F490911A0392FF07C0859585958595FF
:1058B0000E941B2C1092150308950F931F9341E033
:1058C00050E060E070E004C0440F551F661F771F72
:1058D0008A95D2F78091110390911203A09113033E
:1058E000B09114038A019B01082B192B2A2B3B2B07
:1058F000C901B8011F910F910C940F2C60931C03E8
:1059000070931D0380931E0390931F030C94EF2844
:105910008091F7029091C602891719F08F5F877006
:10592000FBCF08950F931F93CF93DF938091C50210
:1059300082958F7009F05DC08091C202882309F4BE
:1059400058C08091F7021091C6026091C002709118
:10595000C102C091C302D091C40291E06F3F09F02F
:1059600090E0292F06E0811709F443C0209721F029
:105970007F3F21F030E003C031E001C0322F90E0E2
:1059800030FD34C0089FF001099FF00D1124DF01A4
:10599000A953BD4F11963C911197371327C03C91E5
:1059A000361324C012963C91129731111FC01396E2
:1059B0004D915C9114974C1B5D0B483C5105B0F424
:1059C0008091C5028F7080618093C502E453FD4FC2
:1059D00080818F708061808380EC92E00E94F4046B
:1059E000DF91CF911F910F910C94882C01968770B5
:1059F000BACFDF91CF911F910F9108950E94A3120A
:105A000081110C94512A0E94F91ECB01089562E085
:105A100070E085E491E00C94E52D62E070E085E4AF
:105A200091E00C94EE2D0E94871C882361F080E3A6
:105A300093E00E94711C81E090E00E94C72E892BA8
:105A400011F40C94841C089580912F03883039F44C
:105A500060E080E393E00E94331C10922F030895CE
:105A6000CF93DF93D62FC72F0E94132D80E090E0B5
:105A70000E94C72E892B11F5ED2FFC2F80E090E0BE
:105A8000DC01A75DBC4F2C912193019684309105D8
:105A9000B9F78DE293E00E943C1A0E94F91EDC01E6
:105AA000CB010296A11DB11D80932503909326037F
:105AB000A0932703B093280381E001C080E0DF9129
:105AC000CF910895CF93DF93D62FC72F0E94242D17
:105AD00060912503709126038091270390912803FC
